:1000000002308A00602A0000FF00030E8301A10075
:100010000A08A0008A010408A2007708A300780853
:10002000A4007908A5007A08A600831383120B1E8A
:100030001B288B182C28220884002308F70024088A
:10004000F8002508F9002608FA0020088A00210E89
:100050008300FF0E7F0E09008A110A122F28A80ABA
:100060002808023C0319A8018B108A110A121B28C8
:100070003700380039002F003400350036002A00E0
:100080003100320033002D00660030003D002B00AF
:1000900020006600271327088316870083120713A2
:1000A0000830F80053280000F8176428F813AD0C46
:1000B00003180717031C0713781764287813F80B25
:1000C0005728622800000717A7308400840B662891
:1000D0006928F81B5628781B5E2808000B08A90021
:1000E0008B13831603178C170C1400000000831267
:1000F0000C087F390319B5280313AA0003170D084C
:100100000313AB0003170F080313AC002A08AD005C
:100110004A202B0803178D0003132C0803178F00A8
:1001200083168C170C140000000083120C0D0E0DAA
:100130007F390319B5280313AA0003170D08031309
:10014000AB0003170F080313AC002A08AD004A20C8
:100150002B0803178D0003132C0803178F008D0A3B
:1001600003198F0A0313712803170313A91B8B1795
:10017000080029308400831300080319CC280630B6
:10018000F800F701F70BC228F80BC1287B30F70005
:10019000F70BC828800BBF280800831608108312AD
:1001A0000814831608168312081EE82883160816FA
:1001B0008312081AD628383003178D0000308F00BC
:1001C00003136E200D30AD004A200A30AD004A20E6
:1001D000831688168312881EFF28831688168312BA
:1001E000881AED28393003178D0000308F00031373
:1001F0006E200D30AD004A200A30AD004A20831633
:1002000008178312081F1629831608178312081B64
:1002100004293A3003178D0000308F0003136E203D
:100220000D30AD004A200A30AD004A2083168817F1
:100230008312881F2D29831688178312881B1B2978
:100240003B3003178D0000308F0003136E200D30FC
:10025000AD004A200A30AD004A20831608108312F0
:1002600008108316881083128814831608168312C8
:10027000081E4C29831608168312081A3A293C30A6
:1002800003178D0000308F0003136E200D30AD007A
:100290004A200A30AD004A20831688168312881E31
:1002A0006329831688168312881A51293D30031753
:1002B0008D0000308F0003136E200D30AD004A20FA
:1002C0000A30AD004A20831608178312081F7A29C6
:1002D000831608178312081B68293E3003178D0008
:1002E00000308F0003136E200D30AD004A200A301D
:1002F000AD004A20831688178312881F9129831620
:1003000088178312881B7F293F3003178D00003028
:100310008F0003136E200D30AD004A200A30AD006F
:100320004A208316881083128810831608118312BE
:100330000815831608168312081EB029831608169E
:100340008312081A9E29403003178D0000308F0059
:1003500003136E200D30AD004A200A30AD004A2054
:10036000831688168312881EC7298316881683125F
:10037000881AB529413003178D0000308F00031310
:100380006E200D30AD004A200A30AD004A208316A1
:1003900008178312081FDE29831608178312081B0B
:1003A000CC29423003178D0000308F0003136E20DC
:1003B0000D30AD004A200A30AD004A208316881760
:1003C0008312881FF529831688178312881BE32957
:1003D000433003178D0000308F0003136E200D3063
:1003E000AD004A200A30AD004A208316081183125E
:1003F0000811831688118312881583160816831234
:10040000081E142A831608168312081A022A44307A
:1004100003178D0000308F0003136E200D30AD00E8
:100420004A200A30AD004A20831688168312881E9F
:100430002B2A831688168312881A192A4530031727
:100440008D0000308F0003136E200D30AD004A2068
:100450000A30AD004A20831608178312081F422A6B
:10046000831608178312081B302A463003178D00A5
:1004700000308F0003136E200D30AD004A200A308B
:10048000AD004A20831688178312881F592A8316C5
:1004900088178312881B472A473003178D000030C6
:1004A0008F0003136E200D30AD004A200A30AD00DE
:1004B0004A2083168811831288118A110A12A52AEC
:1004C000FF30A7002713270883168700831207171A
:1004D000A80183161F149F141F159F1107309C003D
:1004E00083131F308305FF308600F030880001172A
:1004F00083120B16C0308B04FF3083168600F03059
:1005000088004830831203178D0000308F000313DA
:100510006E200D30AD004A200A30AD004A20FA307E
:10052000A900B920280BAD2A493003178D000030EF
:100530008F0003136E200D30AD004A200A30AD004D
:100540004A206430A900B920CD28A808031DAC2A90
:10055000FA30A900B920AD2AA42A8316812A6300A3
:02400E00323F3F
:00000001FF
;PIC16F877A
;CRC=D4D7  CREATED="03-Oca-21 22:28"
