:1000000004308A000E2C00000A108A100A118207A0
:1000100028340C3401340634373400343834003496
:10002000393400342F34003434340034353400345F
:10003000363400342A34003431340034323400345D
:10004000333400342D34003466340034303400341A
:100050003D3400342B340034203400343F308400ED
:1000600083130008031941280630F800F701F70B45
:100070003728F80B36287B30F700F70B3D28800B2C
:1000800034280800460EF039F7000F3008057704D1
:100090008800000008140230F700F70B4D285028A4
:1000A0000000081008000808F700080E0F39F800D3
:1000B00008008316081088100811831288100F306A
:1000C00083160805F038880083120815000008140C
:1000D000000053207808C60008100000081470289B
:1000E0007128000053207808C50008100F308316CF
:1000F000080588008312460EF700F030F7057708F0
:100100004504F8007808C500C51B5F28431C88100B
:10011000431888140000081100000810440EC500A0
:100120000F30C5054508C600422044080F39C500F8
:10013000C600422008000F3083160805880008100A
:100140008810081183128810081108100F30BF00A2
:100150002E200130B1003108033C031CB7280330C6
:10016000C60042200530BF002E20B10AAB28023065
:10017000C60042200530BF002E20B1013108033CEB
:10018000031CCB2831080420B200C3013208C4008C
:100190005920B10ABE288A110A122F2C400BD128EF
:1001A000D4284030C100D528C10101303F02C10729
:1001B00041088038C200C3014208C4005920080029
:1001C0003E08073A0319EE280B3A0319F328063ABA
:1001D0000319FB28023A0319012906290130BF003F
:1001E000C000CE200B29C3010130C40059200230C9
:1001F000BF002E200B290130BF000230C000CE20EE
:100200000B29C3011030C40059200B290130C30051
:100210003E08C400592008003E0803197C29C60086
:10022000420803197C29C60703181D297F30C6021E
:10023000031C7C2903197C2921298130C607031856
:100240007C294608F700F801F901FA013F08CA00C5
:10025000CA174008C9004108C8001830C600C701C5
:10026000481C4A294508FA07031C3C29F90A031DC2
:100270003C29F80A0319C7174408F907031C432946
:10028000F80A0319C7174308C000C0174008F80749
:100290000318C717C70DF80CF90CFA0CCA0CC90CD7
:1002A000C80C0310C60B2F290130F70703187C294F
:1002B000F81B6129CA0DFA0DF90DF80DF7030319A2
:1002C0007C29CA1F7229FA0A031D7229F90A031D23
:1002D0007229F80A031D7229F80CF90CFA0CF70AB6
:1002E00003197C293F08C7004308C706C71F7A299E
:1002F000F8178029F8138029F701F801F901FA01AC
:1003000008008E30F7003608F8003508F900FA01C9
:10031000F808031D95297908F800F9010830F7025B
:10032000F808031D9529F7019D290310F81B9C2946
:10033000F90DF80DF7039529F8130800803083189C
:10034000BA06BF01C0013608BE003A08BE0635082D
:1003500003198E2ABD00F70039080319972ABD0238
:100360000319332A031CF1293A08C300C3173B08B9
:10037000C2003C08C100C0010310C30CC20CC10C78
:10038000C00CBD0BBB29BE1FC8293F14AB2A3F10B0
:100390003D103F16383084008313C02A3F12BE1B25
:1003A000DB293D1CE629C30CC20CC10CC00CF70AAA
:1003B0000319A62AE629C31BE9290310C00DC10DA4
:1003C000C20DC30DF7030319A62ADB293F17532AD1
:1003D0003F133608BE00BE1FEF29C3179F2AC31361
:1003E0009F2A3908BD00F7003508BD023608C30052
:1003F000C3173708C2003808C100C0010310C30C7E
:10040000C20CC10CC00CBD0BFD29BE1F0A2ABF14B3
:10041000AB2ABF103D10BF163C3084008313C02AA6
:10042000BF12BE1B1D2A3D1C282AC30CC20CC10CC6
:10043000C00CF70A0319A62A282AC31B2B2A03106B
:10044000C00DC10DC20DC30DF7030319A62A1D2A45
:10045000BF17532ABF133A08BE00BE1F312AC31765
:100460009F2AC3139F2A3A08C300C3173B08C20040
:100470003C08C100BE1F402AC3133F15AB2A3F11E1
:10048000C0013D10383084008313C02ABE1B692A86
:100490003608BE003D1C532AC30CC20CC10CC00C54
:1004A000F70A0319A62AC01F642AC10A031D642A79
:1004B000C20A031D642AC30A031D642AC30CC20CAA
:1004C000C10CF70A0319A62A3F1BE829BF1B2A2AD9
:1004D000882A8030C306C31F712AAB2A3A08BE009F
:1004E0007E2A3608BE00C308031D7E2AC208031DEB
:1004F0007E2AC108031D7E2AF7019F2AC31B882A72
:100500000310C00DC10DC20DC30DF70B7E2AA62A24
:10051000BE1F8C2AC3179F2AC3139F2A3908F700CE
:100520003A08C3003B08C2003C08C1009F2A3508B6
:10053000F7003608C3003708C2003808C100430876
:10054000F8004208F9004108FA00DE2AF701F80134
:10055000F901FA01DE2AC001C109C209C309C009B3
:10056000C00A031DB92AC10A031DB92AC20A031908
:10057000C30A3F18C729BF18092A3F193F2A6E2A04
:100580000008C107031CCA2AC20A031DCA2AC30ADB
:1005900003193D1484030008C207031CD22AC30AAE
:1005A00003193D1484030008801F803AC307031811
:1005B0003D143F1ACE29BF1A102A462A0800831874
:1005C000E42A463084008313F701F801F901FA01A7
:1005D000C601C701C801C9014508440443044204D7
:1005E0000319222B2030CA000310BE0DBF0DC00D11
:1005F000C10DC60DC70DC80DC90D45084902031D23
:100600000B2B44084802031D0B2B43084702031D14
:100610000B2B42084602031C1C2B4208C60243084F
:10062000031C430FC7024408031C440FC8024508BB
:10063000031C450FC9020314F70DF80DF90DFA0D4F
:10064000CA0BF42A46088000840A47088000840AFE
:1006500048088000840A4908800008000408B600A1
:100660003508B80003194D2B3408C1003308C00009
:100670003208BF003108BE00C501C4012030C300EC
:100680008230C2000C217A08B4007908B3007808DF
:10069000B2007708B100B80B342B3408C10033081E
:1006A000C0003208BF003108BE003E08B63CBE00A4
:1006B000FA013F08C200BF170310BF0CC00CC10CE9
:1006C000FA0CF90CF80CF70CBE0B5C2BC21F732B49
:1006D000F709F809F909FA09F70A0319F80A0319D9
:1006E000F90A0319FA0A7A08B4007908B3007808FD
:1006F000B2007708B100B41F8A2BB603B616B10951
:10070000B209B309B409B10A0319B20A0319B30A49
:100710000319B40A3B30BD009A30BC00CA30BB009C
:10072000BA010A30B80035080319B60A831431300B
:10073000840083133408C1003308C0003208BF00AE
:100740003108BE003D08C5003C08C4003B08C3009A
:100750003A08C200DF227808F708031DC22B350AC9
:1007600038020319C22B36080319C42B0F3938027B
:100770000319BC2B0318F42BB61BF42B361BC42B0C
:100780002030F02B2030B605B61ED22BB61235081D
:10079000031DB6037708B6002D30BE00E0203608F2
:1007A000F700B60135083802031DE02B7708B600C4
:1007B0002E30BE00E0203608F7002030B6050030AD
:1007C0003030B61EF02BB6123508031DB60377087D
:1007D000B6002D30BE00E0203608F700B6013030FC
:1007E000F7077708BE00E02083103D08C1003C08F1
:1007F000C0003B08BF003A08BE00C501C401C301E8
:100800000A30C200DF227A08BD007908BC007808EF
:10081000BB007708BA00B80B962B0800FF30A00089
:100820008316051083120514A501A401A301A201DA
:10083000A901A801A701A601AD01AC01AB01AA0164
:10084000AE01AF01B00183161F149F141F159F1135
:1008500007309C0083131F30830583129B288A1561
:0808600000288A112F2C63000F
:10100000A0172008831687008312871B0528083045
:10101000F700B101F7171A28F7131A280310871BD6
:101020000314B10C77171A287713F70B0E28310821
:10103000F8002628A730F71B2D30F800F80B1E28E3
:101040000000F71B0C28771B14280E287808A10035
:101050002108373C031D7F28B00A300B34280C30A0
:10106000BE008A11E0208A150030FA000C302102FF
:10107000031D3D28FA08031934283730BE008A11B1
:10108000E0208A150730AE002908C1002808C000FA
:101090002708BF002608BE00C501C4012030C300D8
:1010A0008230C2008A110C218A157A08B4007908AE
:1010B000B3007808B2007708B100B6012E08B50079
:1010C0008A1181218A1583103408B8003308B700CB
:1010D0003208B6003108B5007A08BC007908BB00B8
:1010E0007808BA007708B9008A119E218A157A0813
:1010F000A9007908A8007808A7007708A6002108A9
:10110000383C031DD628B00A300B8B280C30BE00AB
:101110008A11E0208A150030FA000E302102031DEA
:101120009428FA0803198B283830BE008A11E02071
:101130008A150830AE002908C1002808C000270819
:10114000BF002608BE00C501C4012030C3008230A4
:10115000C2008A110C218A157A08B4007908B300FC
:101160007808B2007708B100B6012E08B5008A11E0
:1011700081218A1583103408B8003308B70032087B
:10118000B6003108B5007A08BC007908BB007808C1
:10119000BA007708B9008A119E218A157A08A90039
:1011A0007908A8007808A7007708A6002108393C2C
:1011B000031D2D29B00A300BE2280C30BE008A1125
:1011C000E0208A150030FA0010302102031DEB28C0
:1011D000FA080319E2283930BE008A11E0208A1586
:1011E0000930AE002908C1002808C0002708BF0048
:1011F0002608BE00C501C4012030C3008230C200F1
:101200008A110C218A157A08B4007908B30078088D
:10121000B2007708B100B6012E08B5008A1181210D
:101220008A1583103408B8003308B7003208B600B6
:101230003108B5007A08BC007908BB007808BA000C
:101240007708B9008A119E218A157A08A9007908C1
:10125000A8007808A7007708A60021082F3C031DE6
:101260005529B00A300B39290C30BE008A11E02014
:101270008A150030FA0012302102031D4229FA08B3
:10128000031939292F30BE008A11E0208A15290858
:10129000A5002808A4002708A3002608A2000430FF
:1012A000AF00A901A801A701A6012108343C031D34
:1012B000AC29B00A300B61290C30BE008A11E02045
:1012C0008A150030FA0014302102031D6A29FA0839
:1012D000031961293430BE008A11E0208A150430D8
:1012E000AE002908C1002808C0002708BF00260852
:1012F000BE00C501C4012030C3008230C2008A1183
:101300000C218A157A08B4007908B3007808B20075
:101310007708B100B6012E08B5008A1181218A151F
:1013200083103408B8003308B7003208B60031081B
:10133000B5007A08BC007908BB007808BA007708C5
:10134000B9008A119E218A157A08A9007908A80097
:101350007808A7007708A6002108353C031D032A5A
:10136000B00A300BB8290C30BE008A11E0208A1573
:101370000030FA0016302102031DC129FA080319B2
:10138000B8293530BE008A11E0208A150530AE003C
:101390002908C1002808C0002708BF002608BE0091
:1013A000C501C4012030C3008230C2008A110C2163
:1013B0008A157A08B4007908B3007808B200770873
:1013C000B100B6012E08B5008A1181218A1583105B
:1013D0003408B8003308B7003208B6003108B50049
:1013E0007A08BC007908BB007808BA007708B90011
:1013F0008A119E218A157A08A9007908A800780820
:10140000A7007708A6002108363C031D5A2AB00A17
:10141000300B0F2A0C30BE008A11E0208A150030F4
:10142000FA0018302102031D182AFA0803190F2A9E
:101430003630BE008A11E0208A150630AE00290839
:10144000C1002808C0002708BF002608BE00C5014B
:10145000C4012030C3008230C2008A110C218A15D9
:101460007A08B4007908B3007808B2007708B100B0
:10147000B6012E08B5008A1181218A15831034081F
:10148000B8003308B7003208B6003108B5007A0852
:10149000BC007908BB007808BA007708B9008A1147
:1014A0009E218A157A08A9007908A8007808A70063
:1014B0007708A60021082A3C031D822AB00A300BB7
:1014C000662A0C30BE008A11E0208A150030FA002E
:1014D0001A302102031D6F2AFA080319662A2A30DE
:1014E000BE008A11E0208A152908A5002808A4005A
:1014F0002708A3002608A2000330AF00A901A80115
:10150000A701A6012108313C031DD92AB00A300BDE
:101510008E2A0C30BE008A11E0208A150030FA00B5
:101520001C302102031D972AFA0803198E2A313034
:10153000BE008A11E0208A150130AE002908C100E2
:101540002808C0002708BF002608BE00C501C40146
:101550002030C3008230C2008A110C218A157A081B
:10156000B4007908B3007808B2007708B100B6017A
:101570002E08B5008A1181218A1583103408B8001D
:101580003308B7003208B6003108B5007A08BC004D
:101590007908BB007808BA007708B9008A119E2143
:1015A0008A157A08A9007908A8007808A7007708A2
:1015B000A6002108323C031D302BB00A300BE52A6F
:1015C0000C30BE008A11E0208A150030FA001E306F
:1015D0002102031DEE2AFA080319E52A3230BE0063
:1015E0008A11E0208A150230AE002908C1002808BF
:1015F000C0002708BF002608BE00C501C401203076
:10160000C3008230C2008A110C218A157A08B40006
:101610007908B3007808B2007708B100B6012E0847
:10162000B5008A1181218A1583103408B800330867
:10163000B7003208B6003108B5007A08BC00790856
:10164000BB007808BA007708B9008A119E218A1574
:101650007A08A9007908A8007808A7007708A600EA
:101660002108333C031D872BB00A300B3C2B0C3078
:10167000BE008A11E0208A150030FA0020302102D5
:10168000031D452BFA0803193C2B3330BE008A1189
:10169000E0208A150330AE002908C1002808C000E8
:1016A0002708BF002608BE00C501C4012030C300C2
:1016B0008230C2008A110C218A157A08B400790898
:1016C000B3007808B2007708B100B6012E08B50063
:1016D0008A1181218A1583103408B8003308B700B5
:1016E0003208B6003108B5007A08BC007908BB00A2
:1016F0007808BA007708B9008A119E218A157A08FD
:10170000A9007908A8007808A7007708A600210892
:101710002D3C031DAF2BB00A300B932B0C30BE00B9
:101720008A11E0208A150030FA0022302102031DC0
:101730009C2BFA080319932B2D30BE008A11E02050
:101740008A152908A5002808A4002708A300260850
:10175000A2000230AF00A901A801A701A60121083B
:10176000663C031DD52B0030FA0024302102031DF6
:10177000BC2BFA080319B32B0C30BE008A11E020F1
:101780008A153030BE008A11E0208A15A501A40117
:10179000A301A201A901A801A701A601AE01AF0101
:1017A000AD01AC01AB01AA01B0012108303C031D21
:1017B0002B2CB00A300BE12B0C30BE008A11E0203C
:1017C0008A150030FA0026302102031DEA2BFA08A0
:1017D0000319E12B3030BE008A11E0208A15AE01DA
:1017E0002908C1002808C0002708BF002608BE003D
:1017F000C501C4012030C3008230C2008A110C210F
:101800008A157A08B4007908B3007808B20077081E
:10181000B100B6012E08B5008A1181218A15831006
:101820003408B8003308B7003208B6003108B500F4
:101830007A08BC007908BB007808BA007708B900BC
:101840008A119E218A157A08A9007908A8007808CB
:10185000A7007708A60021083D3C031D242EB00AEE
:10186000300B372C0C30BE008A11E0208A15003076
:10187000FA0028302102031D402CFA080319372CE6
:10188000FA30BF008A112E208A150C30BE008A1152
:10189000E0208A152F0B8D2C83102508B800240812
:1018A000B7002308B6002208B5002908BC002808A4
:1018B000BB002708BA002608B9008A119E218A15A4
:1018C0007A08AD007908AC007808AB007708AA0068
:1018D000893084002D08B4002C08B3002B08B20016
:1018E0002A08B100B5018A112E238A152D08A500FA
:1018F0002C08A4002B08A3002A08A2002D08A90088
:101900002C08A8002B08A7002A08A600AE01AF01EA
:10191000AD01AC01AB01AA01232E2F08023C031D2F
:10192000D22C83142508B8002408B7002308B60079
:101930002208B5002908BC002808BB002708BA0007
:101940002608B9008A119E218A157A08AD00790807
:10195000AC007808AB007708AA00893084002D0815
:10196000B4002C08B3002B08B2002A08B100B5015E
:101970008A112E238A152D08A5002C08A4002B08F7
:10198000A3002A08A2002D08A9002C08A8002B08F3
:10199000A7002A08A600AE01AF01AD01AC01AB0162
:1019A000AA01232E2F08033C031D162D2508C10074
:1019B0002408C0002308BF002208BE002908C50073
:1019C0002808C4002708C3002608C2008A110C2179
:1019D0008A157A08AD007908AC007808AB00770862
:1019E000AA00893084002D08B4002C08B3002B080D
:1019F000B2002A08B100B5018A112E238A152D08DC
:101A0000A5002C08A4002B08A3002A08A2002D087A
:101A1000A9002C08A8002B08A7002A08A600AE01E0
:101A2000AF01AD01AC01AB01AA01232E2F08043C8C
:101A3000031D232E2508B4002408B3002308B20098
:101A40002208B1002908B8002808B7002708B60006
:101A50002608B50031080319EF2DBD00350803191C
:101A6000EF2DBD02031C392D7F30BD070318EF2D6C
:101A70003F2D8130BD02031CEF2D0319EF2D3D08D2
:101A8000F700F801F901FA01BC013208BB00BB17ED
:101A90003308BA003408B9001930BD003808B9025B
:101AA0000318622D0130BA020318622DBB0203181D
:101AB000622DBC020318622DBC0ABB0ABA0A3808A0
:101AC000B907942D3708BA0203187D2D0130BB02E7
:101AD00003187D2DBC0203187D2DBC0ABB0A3708F4
:101AE000BA073808B907031C942DBA0A031D942DB0
:101AF000BB0A031D942DBC0A942D36088038BB0206
:101B00000318932D0130BC020318932DBC0A36082C
:101B10008038BB073708BA07031C712DBB0A031DA9
:101B2000712DBC0A712D7A14BD0B972DA22D0310B7
:101B3000B90DBA0DBB0DBC0D0310FA0DF90DF80D62
:101B4000BE0D4E2D3E1CAA2D0310F80CF90CFA0CFC
:101B5000BE0CAD2DF7030319EF2DBE1BD62D0310C0
:101B6000B90DBA0DBB0DBC0D3808B9020318C22D52
:101B70000130BA020318C22DBB020318C22DBC02E9
:101B8000031CE52D3708BA020318CD2D0130BB0226
:101B90000318CD2DBC02031CE52D36088038BB028E
:101BA0000318D62D0130BC02031CE52DFA0A031DD3
:101BB000E52DF90A031DE52DF80A031DE52DF70AA9
:101BC0000319EF2DF80CF90CFA0C3208BD00360899
:101BD000BD06BD1FED2DF817F32DF813F32DF701FA
:101BE000F801F901FA017A08AD007908AC0078082B
:101BF000AB007708AA00893084002D08B4002C08B7
:101C0000B3002B08B2002A08B1000230B5008A11D7
:101C10002E238A152D08A5002C08A4002B08A3004C
:101C20002A08A2002D08A9002C08A8002B08A7004C
:101C30002A08A600AE01AF01AD01AC01AB01AA01BB
:101C40000030F800242EAF0121082B3C031D4C2E40
:101C5000B00A300B302E0C30BE008A11E0208A15FD
:101C60000030FA002A302102031D392EFA08031928
:101C7000302E2B30BE008A11E0208A152908A500DD
:101C80002808A4002708A3002608A2000130AF00FE
:101C9000A901A801A701A6012108203C031D6D2E62
:101CA0000030FA002C302102031D592EFA080319C6
:101CB000502E0C30BE008A11E0208A15A501A40127
:101CC000A301A201A901A801A701A601AE01AF01CC
:101CD000AD01AC01AB01AA01B0018A110A12312C8D
:02400E00323F3F
:00000001FF
;PIC16F877A
;CRC=14BB  CREATED="03-Oca-21 23:17"
